{
  "_format": "hh-sol-artifact-1",
  "contractName": "LostAndFound",
  "sourceName": "contracts/LostAndFound.sol",
  "abi": [
    {
      "anonymous": false,
      "inputs": [
        {
          "indexed": true,
          "internalType": "uint256",
          "name": "id",
          "type": "uint256"
        },
        {
          "indexed": false,
          "internalType": "address",
          "name": "finder",
          "type": "address"
        },
        {
          "indexed": false,
          "internalType": "string",
          "name": "foundLocation",
          "type": "string"
        }
      ],
      "name": "ItemFound",
      "type": "event"
    },
    {
      "anonymous": false,
      "inputs": [
        {
          "indexed": true,
          "internalType": "uint256",
          "name": "id",
          "type": "uint256"
        },
        {
          "indexed": false,
          "internalType": "address",
          "name": "reporter",
          "type": "address"
        },
        {
          "indexed": false,
          "internalType": "string",
          "name": "name",
          "type": "string"
        },
        {
          "indexed": false,
          "internalType": "uint256",
          "name": "reward",
          "type": "uint256"
        }
      ],
      "name": "ItemReported",
      "type": "event"
    },
    {
      "anonymous": false,
      "inputs": [
        {
          "indexed": true,
          "internalType": "uint256",
          "name": "notificationId",
          "type": "uint256"
        },
        {
          "indexed": true,
          "internalType": "address",
          "name": "receiver",
          "type": "address"
        },
        {
          "indexed": false,
          "internalType": "uint256",
          "name": "itemId",
          "type": "uint256"
        }
      ],
      "name": "NotificationCreated",
      "type": "event"
    },
    {
      "anonymous": false,
      "inputs": [
        {
          "indexed": true,
          "internalType": "uint256",
          "name": "itemId",
          "type": "uint256"
        },
        {
          "indexed": false,
          "internalType": "address",
          "name": "finder",
          "type": "address"
        },
        {
          "indexed": false,
          "internalType": "uint256",
          "name": "amount",
          "type": "uint256"
        }
      ],
      "name": "RewardClaimed",
      "type": "event"
    },
    {
      "inputs": [
        {
          "internalType": "uint256",
          "name": "_itemId",
          "type": "uint256"
        }
      ],
      "name": "claimReward",
      "outputs": [],
      "stateMutability": "nonpayable",
      "type": "function"
    },
    {
      "inputs": [],
      "name": "getItemCount",
      "outputs": [
        {
          "internalType": "uint256",
          "name": "",
          "type": "uint256"
        }
      ],
      "stateMutability": "view",
      "type": "function"
    },
    {
      "inputs": [
        {
          "internalType": "uint256",
          "name": "_id",
          "type": "uint256"
        }
      ],
      "name": "getLostItem",
      "outputs": [
        {
          "internalType": "uint256",
          "name": "id",
          "type": "uint256"
        },
        {
          "internalType": "address",
          "name": "reporter",
          "type": "address"
        },
        {
          "internalType": "string",
          "name": "name",
          "type": "string"
        },
        {
          "internalType": "string",
          "name": "description",
          "type": "string"
        },
        {
          "internalType": "string",
          "name": "location",
          "type": "string"
        },
        {
          "internalType": "string",
          "name": "contact",
          "type": "string"
        },
        {
          "internalType": "bool",
          "name": "isFound",
          "type": "bool"
        },
        {
          "internalType": "uint256",
          "name": "timestamp",
          "type": "uint256"
        },
        {
          "internalType": "uint256",
          "name": "reward",
          "type": "uint256"
        },
        {
          "internalType": "bool",
          "name": "rewardClaimed",
          "type": "bool"
        }
      ],
      "stateMutability": "view",
      "type": "function"
    },
    {
      "inputs": [
        {
          "internalType": "address",
          "name": "_user",
          "type": "address"
        }
      ],
      "name": "getUserNotifications",
      "outputs": [
        {
          "components": [
            {
              "internalType": "uint256",
              "name": "id",
              "type": "uint256"
            },
            {
              "internalType": "uint256",
              "name": "itemId",
              "type": "uint256"
            },
            {
              "internalType": "address",
              "name": "finder",
              "type": "address"
            },
            {
              "internalType": "address",
              "name": "receiver",
              "type": "address"
            },
            {
              "internalType": "string",
              "name": "message",
              "type": "string"
            },
            {
              "internalType": "string",
              "name": "finderContact",
              "type": "string"
            },
            {
              "internalType": "bool",
              "name": "isRead",
              "type": "bool"
            },
            {
              "internalType": "uint256",
              "name": "timestamp",
              "type": "uint256"
            }
          ],
          "internalType": "struct LostAndFound.Notification[]",
          "name": "",
          "type": "tuple[]"
        }
      ],
      "stateMutability": "view",
      "type": "function"
    },
    {
      "inputs": [],
      "name": "itemCount",
      "outputs": [
        {
          "internalType": "uint256",
          "name": "",
          "type": "uint256"
        }
      ],
      "stateMutability": "view",
      "type": "function"
    },
    {
      "inputs": [
        {
          "internalType": "uint256",
          "name": "",
          "type": "uint256"
        }
      ],
      "name": "lostItems",
      "outputs": [
        {
          "internalType": "uint256",
          "name": "id",
          "type": "uint256"
        },
        {
          "internalType": "address",
          "name": "reporter",
          "type": "address"
        },
        {
          "internalType": "string",
          "name": "name",
          "type": "string"
        },
        {
          "internalType": "string",
          "name": "description",
          "type": "string"
        },
        {
          "internalType": "string",
          "name": "location",
          "type": "string"
        },
        {
          "internalType": "string",
          "name": "contact",
          "type": "string"
        },
        {
          "internalType": "bool",
          "name": "isFound",
          "type": "bool"
        },
        {
          "internalType": "uint256",
          "name": "timestamp",
          "type": "uint256"
        },
        {
          "internalType": "uint256",
          "name": "reward",
          "type": "uint256"
        },
        {
          "internalType": "bool",
          "name": "rewardClaimed",
          "type": "bool"
        }
      ],
      "stateMutability": "view",
      "type": "function"
    },
    {
      "inputs": [
        {
          "internalType": "uint256",
          "name": "_itemId",
          "type": "uint256"
        },
        {
          "internalType": "string",
          "name": "_foundDetails",
          "type": "string"
        },
        {
          "internalType": "string",
          "name": "_foundLocation",
          "type": "string"
        },
        {
          "internalType": "string",
          "name": "_finderContact",
          "type": "string"
        }
      ],
      "name": "markItemAsFound",
      "outputs": [],
      "stateMutability": "nonpayable",
      "type": "function"
    },
    {
      "inputs": [
        {
          "internalType": "uint256",
          "name": "_notificationId",
          "type": "uint256"
        }
      ],
      "name": "markNotificationAsRead",
      "outputs": [],
      "stateMutability": "nonpayable",
      "type": "function"
    },
    {
      "inputs": [],
      "name": "notificationCount",
      "outputs": [
        {
          "internalType": "uint256",
          "name": "",
          "type": "uint256"
        }
      ],
      "stateMutability": "view",
      "type": "function"
    },
    {
      "inputs": [
        {
          "internalType": "uint256",
          "name": "",
          "type": "uint256"
        }
      ],
      "name": "notifications",
      "outputs": [
        {
          "internalType": "uint256",
          "name": "id",
          "type": "uint256"
        },
        {
          "internalType": "uint256",
          "name": "itemId",
          "type": "uint256"
        },
        {
          "internalType": "address",
          "name": "finder",
          "type": "address"
        },
        {
          "internalType": "address",
          "name": "receiver",
          "type": "address"
        },
        {
          "internalType": "string",
          "name": "message",
          "type": "string"
        },
        {
          "internalType": "string",
          "name": "finderContact",
          "type": "string"
        },
        {
          "internalType": "bool",
          "name": "isRead",
          "type": "bool"
        },
        {
          "internalType": "uint256",
          "name": "timestamp",
          "type": "uint256"
        }
      ],
      "stateMutability": "view",
      "type": "function"
    },
    {
      "inputs": [
        {
          "internalType": "string",
          "name": "_name",
          "type": "string"
        },
        {
          "internalType": "string",
          "name": "_description",
          "type": "string"
        },
        {
          "internalType": "string",
          "name": "_location",
          "type": "string"
        },
        {
          "internalType": "string",
          "name": "_contact",
          "type": "string"
        }
      ],
      "name": "reportLostItem",
      "outputs": [],
      "stateMutability": "payable",
      "type": "function"
    },
    {
      "inputs": [
        {
          "internalType": "address",
          "name": "",
          "type": "address"
        },
        {
          "internalType": "uint256",
          "name": "",
          "type": "uint256"
        }
      ],
      "name": "userNotifications",
      "outputs": [
        {
          "internalType": "uint256",
          "name": "",
          "type": "uint256"
        }
      ],
      "stateMutability": "view",
      "type": "function"
    }
  ],
  "bytecode": "0x608060405234801561001057600080fd5b50612b5d806100206000396000f3fe6080604052600436106100a75760003560e01c806371342f0c1161006457806371342f0c146101f75780637749cf231461022257806399f9b8881461024d5780639e8d43a214610276578063ae169a50146102bc578063d3fc00de146102e5576100a7565b806334c1f944146100ac57806338c91910146100f05780634a2d10d01461012d57806357f3135814610173578063671214bf146101b05780636bfb0d01146101cc575b600080fd5b3480156100b857600080fd5b506100d360048036038101906100ce9190611a6f565b61030e565b6040516100e7989796959493929190611b97565b60405180910390f35b3480156100fc57600080fd5b5061011760048036038101906101129190611c4f565b6104b3565b6040516101249190611c8f565b60405180910390f35b34801561013957600080fd5b50610154600480360381019061014f9190611a6f565b6104e4565b60405161016a9a99989796959493929190611caa565b60405180910390f35b34801561017f57600080fd5b5061019a60048036038101906101959190611d62565b61085d565b6040516101a79190611f7f565b60405180910390f35b6101ca60048036038101906101c591906120d6565b610b8e565b005b3480156101d857600080fd5b506101e1610da7565b6040516101ee9190611c8f565b60405180910390f35b34801561020357600080fd5b5061020c610dad565b6040516102199190611c8f565b60405180910390f35b34801561022e57600080fd5b50610237610db3565b6040516102449190611c8f565b60405180910390f35b34801561025957600080fd5b50610274600480360381019061026f9190611a6f565b610dbd565b005b34801561028257600080fd5b5061029d60048036038101906102989190611a6f565b610ee3565b6040516102b39a99989796959493929190611caa565b60405180910390f35b3480156102c857600080fd5b506102e360048036038101906102de9190611a6f565b611191565b005b3480156102f157600080fd5b5061030c600480360381019061030791906121ad565b6115d2565b005b60016020528060005260406000206000915090508060000154908060010154908060020160009054906101000a900473ffffffffffffffffffffffffffffffffffffffff16908060030160009054906101000a900473ffffffffffffffffffffffffffffffffffffffff169080600401805461038990612297565b80601f01602080910402602001604051908101604052809291908181526020018280546103b590612297565b80156104025780601f106103d757610100808354040283529160200191610402565b820191906000526020600020905b8154815290600101906020018083116103e557829003601f168201915b50505050509080600501805461041790612297565b80601f016020809104026020016040519081016040528092919081815260200182805461044390612297565b80156104905780601f1061046557610100808354040283529160200191610490565b820191906000526020600020905b81548152906001019060200180831161047357829003601f168201915b5050505050908060060160009054906101000a900460ff16908060070154905088565b600260205281600052604060002081815481106104cf57600080fd5b90600052602060002001600091509150505481565b60008060608060608060008060008060008060008d815260200190815260200160002060405180610140016040529081600082015481526020016001820160009054906101000a900473ffffffffffffffffffffffffffffffffffffffff1673ffffffffffffffffffffffffffffffffffffffff1673ffffffffffffffffffffffffffffffffffffffff16815260200160028201805461058390612297565b80601f01602080910402602001604051908101604052809291908181526020018280546105af90612297565b80156105fc5780601f106105d1576101008083540402835291602001916105fc565b820191906000526020600020905b8154815290600101906020018083116105df57829003601f168201915b5050505050815260200160038201805461061590612297565b80601f016020809104026020016040519081016040528092919081815260200182805461064190612297565b801561068e5780601f106106635761010080835404028352916020019161068e565b820191906000526020600020905b81548152906001019060200180831161067157829003601f168201915b505050505081526020016004820180546106a790612297565b80601f01602080910402602001604051908101604052809291908181526020018280546106d390612297565b80156107205780601f106106f557610100808354040283529160200191610720565b820191906000526020600020905b81548152906001019060200180831161070357829003601f168201915b5050505050815260200160058201805461073990612297565b80601f016020809104026020016040519081016040528092919081815260200182805461076590612297565b80156107b25780601f10610787576101008083540402835291602001916107b2565b820191906000526020600020905b81548152906001019060200180831161079557829003601f168201915b505050505081526020016006820160009054906101000a900460ff1615151515815260200160078201548152602001600882015481526020016009820160009054906101000a900460ff1615151515815250509050806000015181602001518260400151836060015184608001518560a001518660c001518760e001518861010001518961012001519a509a509a509a509a509a509a509a509a509a50509193959799509193959799565b60606000600260008473ffffffffffffffffffffffffffffffffffffffff1673ffffffffffffffffffffffffffffffffffffffff16815260200190815260200160002090506000818054905067ffffffffffffffff8111156108c2576108c1611fab565b5b6040519080825280602002602001820160405280156108fb57816020015b6108e86119b2565b8152602001906001900390816108e05790505b50905060005b8280549050811015610b835760016000848381548110610924576109236122c8565b5b906000526020600020015481526020019081526020016000206040518061010001604052908160008201548152602001600182015481526020016002820160009054906101000a900473ffffffffffffffffffffffffffffffffffffffff1673ffffffffffffffffffffffffffffffffffffffff1673ffffffffffffffffffffffffffffffffffffffff1681526020016003820160009054906101000a900473ffffffffffffffffffffffffffffffffffffffff1673ffffffffffffffffffffffffffffffffffffffff1673ffffffffffffffffffffffffffffffffffffffff168152602001600482018054610a1990612297565b80601f0160208091040260200160405190810160405280929190818152602001828054610a4590612297565b8015610a925780601f10610a6757610100808354040283529160200191610a92565b820191906000526020600020905b815481529060010190602001808311610a7557829003601f168201915b50505050508152602001600582018054610aab90612297565b80601f0160208091040260200160405190810160405280929190818152602001828054610ad790612297565b8015610b245780601f10610af957610100808354040283529160200191610b24565b820191906000526020600020905b815481529060010190602001808311610b0757829003601f168201915b505050505081526020016006820160009054906101000a900460ff16151515158152602001600782015481525050828281518110610b6557610b646122c8565b5b60200260200101819052508080610b7b90612326565b915050610901565b508092505050919050565b60003411610bd1576040517f08c379a0000000000000000000000000000000000000000000000000000000008152600401610bc8906123ba565b60405180910390fd5b60036000815480929190610be490612326565b919050555060405180610140016040528060035481526020013373ffffffffffffffffffffffffffffffffffffffff1681526020018581526020018481526020018381526020018281526020016000151581526020014281526020013481526020016000151581525060008060035481526020019081526020016000206000820151816000015560208201518160010160006101000a81548173ffffffffffffffffffffffffffffffffffffffff021916908373ffffffffffffffffffffffffffffffffffffffff1602179055506040820151816002019081610cc79190612586565b506060820151816003019081610cdd9190612586565b506080820151816004019081610cf39190612586565b5060a0820151816005019081610d099190612586565b5060c08201518160060160006101000a81548160ff02191690831515021790555060e0820151816007015561010082015181600801556101208201518160090160006101000a81548160ff0219169083151502179055509050506003547ffe5e9ab4218b22713ffdfc6796ee0f9c23c7925dca7143826e4b19ae0f9e9874338634604051610d9993929190612658565b60405180910390a250505050565b60035481565b60045481565b6000600354905090565b600081118015610dcf57506004548111155b610e0e576040517f08c379a0000000000000000000000000000000000000000000000000000000008152600401610e05906126e2565b60405180910390fd5b3373ffffffffffffffffffffffffffffffffffffffff166001600083815260200190815260200160002060030160009054906101000a900473ffffffffffffffffffffffffffffffffffffffff1673ffffffffffffffffffffffffffffffffffffffff1614610eb2576040517f08c379a0000000000000000000000000000000000000000000000000000000008152600401610ea99061274e565b60405180910390fd5b600180600083815260200190815260200160002060060160006101000a81548160ff02191690831515021790555050565b60006020528060005260406000206000915090508060000154908060010160009054906101000a900473ffffffffffffffffffffffffffffffffffffffff1690806002018054610f3290612297565b80601f0160208091040260200160405190810160405280929190818152602001828054610f5e90612297565b8015610fab5780601f10610f8057610100808354040283529160200191610fab565b820191906000526020600020905b815481529060010190602001808311610f8e57829003601f168201915b505050505090806003018054610fc090612297565b80601f0160208091040260200160405190810160405280929190818152602001828054610fec90612297565b80156110395780601f1061100e57610100808354040283529160200191611039565b820191906000526020600020905b81548152906001019060200180831161101c57829003601f168201915b50505050509080600401805461104e90612297565b80601f016020809104026020016040519081016040528092919081815260200182805461107a90612297565b80156110c75780601f1061109c576101008083540402835291602001916110c7565b820191906000526020600020905b8154815290600101906020018083116110aa57829003601f168201915b5050505050908060050180546110dc90612297565b80601f016020809104026020016040519081016040528092919081815260200182805461110890612297565b80156111555780601f1061112a57610100808354040283529160200191611155565b820191906000526020600020905b81548152906001019060200180831161113857829003601f168201915b5050505050908060060160009054906101000a900460ff16908060070154908060080154908060090160009054906101000a900460ff1690508a565b6000811180156111a357506003548111155b6111e2576040517f08c379a00000000000000000000000000000000000000000000000000000000081526004016111d9906127ba565b60405180910390fd5b600080600083815260200190815260200160002090508060060160009054906101000a900460ff16611249576040517f08c379a000000000000000000000000000000000000000000000000000000000815260040161124090612826565b60405180910390fd5b8060090160009054906101000a900460ff161561129b576040517f08c379a000000000000000000000000000000000000000000000000000000000815260040161129290612892565b60405180910390fd5b8060010160009054906101000a900473ffffffffffffffffffffffffffffffffffffffff1673ffffffffffffffffffffffffffffffffffffffff163373ffffffffffffffffffffffffffffffffffffffff161461132d576040517f08c379a000000000000000000000000000000000000000000000000000000000815260040161132490612924565b60405180910390fd5b60018160090160006101000a81548160ff0219169083151502179055506000600260008360010160009054906101000a900473ffffffffffffffffffffffffffffffffffffffff1673ffffffffffffffffffffffffffffffffffffffff1673ffffffffffffffffffffffffffffffffffffffff1681526020019081526020016000209050600080600090505b828054905081101561146d5784600160008584815481106113dd576113dc6122c8565b5b90600052602060002001548152602001908152602001600020600101540361145a5760016000848381548110611416576114156122c8565b5b9060005260206000200154815260200190815260200160002060020160009054906101000a900473ffffffffffffffffffffffffffffffffffffffff16915061146d565b808061146590612326565b9150506113b9565b50600073ffffffffffffffffffffffffffffffffffffffff168173ffffffffffffffffffffffffffffffffffffffff16036114dd576040517f08c379a00000000000000000000000000000000000000000000000000000000081526004016114d490612990565b60405180910390fd5b60008173ffffffffffffffffffffffffffffffffffffffff168460080154604051611507906129e1565b60006040518083038185875af1925050503d8060008114611544576040519150601f19603f3d011682016040523d82523d6000602084013e611549565b606091505b505090508061158d576040517f08c379a000000000000000000000000000000000000000000000000000000000815260040161158490612a42565b60405180910390fd5b847f24b5efa61dd1cfc659205a97fb8ed868f3cb8c81922bab2b96423e5de1de2cb78386600801546040516115c3929190612a62565b60405180910390a25050505050565b6000841180156115e457506003548411155b611623576040517f08c379a000000000000000000000000000000000000000000000000000000000815260040161161a906127ba565b60405180910390fd5b60008085815260200190815260200160002060060160009054906101000a900460ff1615611686576040517f08c379a000000000000000000000000000000000000000000000000000000000815260040161167d90612ad7565b60405180910390fd5b60008060008681526020019081526020016000209050600460008154809291906116af90612326565b919050555060405180610100016040528060045481526020018681526020013373ffffffffffffffffffffffffffffffffffffffff1681526020018260010160009054906101000a900473ffffffffffffffffffffffffffffffffffffffff1673ffffffffffffffffffffffffffffffffffffffff16815260200185815260200183815260200160001515815260200142815250600160006004548152602001908152602001600020600082015181600001556020820151816001015560408201518160020160006101000a81548173ffffffffffffffffffffffffffffffffffffffff021916908373ffffffffffffffffffffffffffffffffffffffff16021790555060608201518160030160006101000a81548173ffffffffffffffffffffffffffffffffffffffff021916908373ffffffffffffffffffffffffffffffffffffffff160217905550608082015181600401908161180f9190612586565b5060a08201518160050190816118259190612586565b5060c08201518160060160006101000a81548160ff02191690831515021790555060e08201518160070155905050600260008260010160009054906101000a900473ffffffffffffffffffffffffffffffffffffffff1673ffffffffffffffffffffffffffffffffffffffff1673ffffffffffffffffffffffffffffffffffffffff168152602001908152602001600020600454908060018154018082558091505060019003906000526020600020016000909190919091505560018160060160006101000a81548160ff021916908315150217905550847f7b55f6a33020ec257c6e90eb988e4005e14e3d6240348fcb44952e60be46c843338560405161192e929190612af7565b60405180910390a28060010160009054906101000a900473ffffffffffffffffffffffffffffffffffffffff1673ffffffffffffffffffffffffffffffffffffffff166004547f17d732b8f5f346b1808398f13b2d81d0f7fcff7f7eb53cdf3dc32b8f56a4b294876040516119a39190611c8f565b60405180910390a35050505050565b6040518061010001604052806000815260200160008152602001600073ffffffffffffffffffffffffffffffffffffffff168152602001600073ffffffffffffffffffffffffffffffffffffffff1681526020016060815260200160608152602001600015158152602001600081525090565b6000604051905090565b600080fd5b600080fd5b6000819050919050565b611a4c81611a39565b8114611a5757600080fd5b50565b600081359050611a6981611a43565b92915050565b600060208284031215611a8557611a84611a2f565b5b6000611a9384828501611a5a565b91505092915050565b611aa581611a39565b82525050565b600073ffffffffffffffffffffffffffffffffffffffff82169050919050565b6000611ad682611aab565b9050919050565b611ae681611acb565b82525050565b600081519050919050565b600082825260208201905092915050565b60005b83811015611b26578082015181840152602081019050611b0b565b60008484015250505050565b6000601f19601f8301169050919050565b6000611b4e82611aec565b611b588185611af7565b9350611b68818560208601611b08565b611b7181611b32565b840191505092915050565b60008115159050919050565b611b9181611b7c565b82525050565b600061010082019050611bad600083018b611a9c565b611bba602083018a611a9c565b611bc76040830189611add565b611bd46060830188611add565b8181036080830152611be68187611b43565b905081810360a0830152611bfa8186611b43565b9050611c0960c0830185611b88565b611c1660e0830184611a9c565b9998505050505050505050565b611c2c81611acb565b8114611c3757600080fd5b50565b600081359050611c4981611c23565b92915050565b60008060408385031215611c6657611c65611a2f565b5b6000611c7485828601611c3a565b9250506020611c8585828601611a5a565b9150509250929050565b6000602082019050611ca46000830184611a9c565b92915050565b600061014082019050611cc0600083018d611a9c565b611ccd602083018c611add565b8181036040830152611cdf818b611b43565b90508181036060830152611cf3818a611b43565b90508181036080830152611d078189611b43565b905081810360a0830152611d1b8188611b43565b9050611d2a60c0830187611b88565b611d3760e0830186611a9c565b611d45610100830185611a9c565b611d53610120830184611b88565b9b9a5050505050505050505050565b600060208284031215611d7857611d77611a2f565b5b6000611d8684828501611c3a565b91505092915050565b600081519050919050565b600082825260208201905092915050565b6000819050602082019050919050565b611dc481611a39565b82525050565b611dd381611acb565b82525050565b600082825260208201905092915050565b6000611df582611aec565b611dff8185611dd9565b9350611e0f818560208601611b08565b611e1881611b32565b840191505092915050565b611e2c81611b7c565b82525050565b600061010083016000830151611e4b6000860182611dbb565b506020830151611e5e6020860182611dbb565b506040830151611e716040860182611dca565b506060830151611e846060860182611dca565b5060808301518482036080860152611e9c8282611dea565b91505060a083015184820360a0860152611eb68282611dea565b91505060c0830151611ecb60c0860182611e23565b5060e0830151611ede60e0860182611dbb565b508091505092915050565b6000611ef58383611e32565b905092915050565b6000602082019050919050565b6000611f1582611d8f565b611f1f8185611d9a565b935083602082028501611f3185611dab565b8060005b85811015611f6d5784840389528151611f4e8582611ee9565b9450611f5983611efd565b925060208a01995050600181019050611f35565b50829750879550505050505092915050565b60006020820190508181036000830152611f998184611f0a565b905092915050565b600080fd5b600080fd5b7f4e487b7100000000000000000000000000000000000000000000000000000000600052604160045260246000fd5b611fe382611b32565b810181811067ffffffffffffffff8211171561200257612001611fab565b5b80604052505050565b6000612015611a25565b90506120218282611fda565b919050565b600067ffffffffffffffff82111561204157612040611fab565b5b61204a82611b32565b9050602081019050919050565b82818337600083830152505050565b600061207961207484612026565b61200b565b90508281526020810184848401111561209557612094611fa6565b5b6120a0848285612057565b509392505050565b600082601f8301126120bd576120bc611fa1565b5b81356120cd848260208601612066565b91505092915050565b600080600080608085870312156120f0576120ef611a2f565b5b600085013567ffffffffffffffff81111561210e5761210d611a34565b5b61211a878288016120a8565b945050602085013567ffffffffffffffff81111561213b5761213a611a34565b5b612147878288016120a8565b935050604085013567ffffffffffffffff81111561216857612167611a34565b5b612174878288016120a8565b925050606085013567ffffffffffffffff81111561219557612194611a34565b5b6121a1878288016120a8565b91505092959194509250565b600080600080608085870312156121c7576121c6611a2f565b5b60006121d587828801611a5a565b945050602085013567ffffffffffffffff8111156121f6576121f5611a34565b5b612202878288016120a8565b935050604085013567ffffffffffffffff81111561222357612222611a34565b5b61222f878288016120a8565b925050606085013567ffffffffffffffff8111156122505761224f611a34565b5b61225c878288016120a8565b91505092959194509250565b7f4e487b7100000000000000000000000000000000000000000000000000000000600052602260045260246000fd5b600060028204905060018216806122af57607f821691505b6020821081036122c2576122c1612268565b5b50919050565b7f4e487b7100000000000000000000000000000000000000000000000000000000600052603260045260246000fd5b7f4e487b7100000000000000000000000000000000000000000000000000000000600052601160045260246000fd5b600061233182611a39565b91507fffffffffffffffffffffffffffffffffffffffffffffffffffffffffffffffff8203612363576123626122f7565b5b600182019050919050565b7f4d7573742070726f766964652061207265776172640000000000000000000000600082015250565b60006123a4601583611af7565b91506123af8261236e565b602082019050919050565b600060208201905081810360008301526123d381612397565b9050919050565b60008190508160005260206000209050919050565b60006020601f8301049050919050565b600082821b905092915050565b60006008830261243c7fffffffffffffffffffffffffffffffffffffffffffffffffffffffffffffffff826123ff565b61244686836123ff565b95508019841693508086168417925050509392505050565b6000819050919050565b600061248361247e61247984611a39565b61245e565b611a39565b9050919050565b6000819050919050565b61249d83612468565b6124b16124a98261248a565b84845461240c565b825550505050565b600090565b6124c66124b9565b6124d1818484612494565b505050565b5b818110156124f5576124ea6000826124be565b6001810190506124d7565b5050565b601f82111561253a5761250b816123da565b612514846123ef565b81016020851015612523578190505b61253761252f856123ef565b8301826124d6565b50505b505050565b600082821c905092915050565b600061255d6000198460080261253f565b1980831691505092915050565b6000612576838361254c565b9150826002028217905092915050565b61258f82611aec565b67ffffffffffffffff8111156125a8576125a7611fab565b5b6125b28254612297565b6125bd8282856124f9565b600060209050601f8311600181146125f057600084156125de578287015190505b6125e8858261256a565b865550612650565b601f1984166125fe866123da565b60005b8281101561262657848901518255600182019150602085019450602081019050612601565b86831015612643578489015161263f601f89168261254c565b8355505b6001600288020188555050505b505050505050565b600060608201905061266d6000830186611add565b818103602083015261267f8185611b43565b905061268e6040830184611a9c565b949350505050565b7f496e76616c6964206e6f74696669636174696f6e204944000000000000000000600082015250565b60006126cc601783611af7565b91506126d782612696565b602082019050919050565b600060208201905081810360008301526126fb816126bf565b9050919050565b7f4e6f7420617574686f72697a6564000000000000000000000000000000000000600082015250565b6000612738600e83611af7565b915061274382612702565b602082019050919050565b600060208201905081810360008301526127678161272b565b9050919050565b7f496e76616c6964206974656d2049440000000000000000000000000000000000600082015250565b60006127a4600f83611af7565b91506127af8261276e565b602082019050919050565b600060208201905081810360008301526127d381612797565b9050919050565b7f4974656d206e6f7420666f756e64207965740000000000000000000000000000600082015250565b6000612810601283611af7565b915061281b826127da565b602082019050919050565b6000602082019050818103600083015261283f81612803565b9050919050565b7f52657761726420616c726561647920636c61696d656400000000000000000000600082015250565b600061287c601683611af7565b915061288782612846565b602082019050919050565b600060208201905081810360008301526128ab8161286f565b9050919050565b7f4f6e6c79207265706f727465722063616e20617070726f76652072657761726460008201527f20636c61696d0000000000000000000000000000000000000000000000000000602082015250565b600061290e602683611af7565b9150612919826128b2565b604082019050919050565b6000602082019050818103600083015261293d81612901565b9050919050565b7f46696e646572206e6f7420666f756e6400000000000000000000000000000000600082015250565b600061297a601083611af7565b915061298582612944565b602082019050919050565b600060208201905081810360008301526129a98161296d565b9050919050565b600081905092915050565b50565b60006129cb6000836129b0565b91506129d6826129bb565b600082019050919050565b60006129ec826129be565b9150819050919050565b7f4661696c656420746f2073656e64207265776172640000000000000000000000600082015250565b6000612a2c601583611af7565b9150612a37826129f6565b602082019050919050565b60006020820190508181036000830152612a5b81612a1f565b9050919050565b6000604082019050612a776000830185611add565b612a846020830184611a9c565b9392505050565b7f4974656d20616c7265616479206d61726b656420617320666f756e6400000000600082015250565b6000612ac1601c83611af7565b9150612acc82612a8b565b602082019050919050565b60006020820190508181036000830152612af081612ab4565b9050919050565b6000604082019050612b0c6000830185611add565b8181036020830152612b1e8184611b43565b9050939250505056fea2646970667358221220ae243668984f345c18aa1a6e43507c2595bb065b662c4d30dcf53b3bb3dbef9264736f6c63430008130033",
  "linkReferences": {},
  "deployedLinkReferences": {}
}